{
  "_format": "hh-sol-artifact-1",
  "contractName": "Staking",
  "sourceName": "contracts/Staking.sol",
  "abi": [
    {
      "inputs": [
        {
          "internalType": "address",
          "name": "_stakingToken",
          "type": "address"
        },
        {
          "internalType": "address",
          "name": "_rewardsToken",
          "type": "address"
        }
      ],
      "stateMutability": "nonpayable",
      "type": "constructor"
    },
    {
      "inputs": [],
      "name": "StakingTransferFailed",
      "type": "error"
    },
    {
      "inputs": [
        {
          "internalType": "address",
          "name": "",
          "type": "address"
        }
      ],
      "name": "balanceOf",
      "outputs": [
        {
          "internalType": "uint256",
          "name": "",
          "type": "uint256"
        }
      ],
      "stateMutability": "view",
      "type": "function"
    },
    {
      "inputs": [],
      "name": "claimRewards",
      "outputs": [],
      "stateMutability": "nonpayable",
      "type": "function"
    },
    {
      "inputs": [],
      "name": "duration",
      "outputs": [
        {
          "internalType": "uint256",
          "name": "",
          "type": "uint256"
        }
      ],
      "stateMutability": "view",
      "type": "function"
    },
    {
      "inputs": [
        {
          "internalType": "address",
          "name": "_account",
          "type": "address"
        }
      ],
      "name": "earned",
      "outputs": [
        {
          "internalType": "uint256",
          "name": "",
          "type": "uint256"
        }
      ],
      "stateMutability": "view",
      "type": "function"
    },
    {
      "inputs": [],
      "name": "finishAt",
      "outputs": [
        {
          "internalType": "uint256",
          "name": "",
          "type": "uint256"
        }
      ],
      "stateMutability": "view",
      "type": "function"
    },
    {
      "inputs": [],
      "name": "lastTimeRewardApplicable",
      "outputs": [
        {
          "internalType": "uint256",
          "name": "",
          "type": "uint256"
        }
      ],
      "stateMutability": "view",
      "type": "function"
    },
    {
      "inputs": [
        {
          "internalType": "uint256",
          "name": "x",
          "type": "uint256"
        },
        {
          "internalType": "uint256",
          "name": "y",
          "type": "uint256"
        }
      ],
      "name": "min",
      "outputs": [
        {
          "internalType": "uint256",
          "name": "",
          "type": "uint256"
        }
      ],
      "stateMutability": "pure",
      "type": "function"
    },
    {
      "inputs": [
        {
          "internalType": "uint256",
          "name": "_amount",
          "type": "uint256"
        }
      ],
      "name": "notifyRewardsAmount",
      "outputs": [],
      "stateMutability": "nonpayable",
      "type": "function"
    },
    {
      "inputs": [],
      "name": "owner",
      "outputs": [
        {
          "internalType": "address",
          "name": "",
          "type": "address"
        }
      ],
      "stateMutability": "view",
      "type": "function"
    },
    {
      "inputs": [],
      "name": "rewardPerToken",
      "outputs": [
        {
          "internalType": "uint256",
          "name": "",
          "type": "uint256"
        }
      ],
      "stateMutability": "view",
      "type": "function"
    },
    {
      "inputs": [],
      "name": "rewardPerTokenStored",
      "outputs": [
        {
          "internalType": "uint256",
          "name": "",
          "type": "uint256"
        }
      ],
      "stateMutability": "view",
      "type": "function"
    },
    {
      "inputs": [],
      "name": "rewardRate",
      "outputs": [
        {
          "internalType": "uint256",
          "name": "",
          "type": "uint256"
        }
      ],
      "stateMutability": "view",
      "type": "function"
    },
    {
      "inputs": [],
      "name": "rewardToken",
      "outputs": [
        {
          "internalType": "contract IERC20",
          "name": "",
          "type": "address"
        }
      ],
      "stateMutability": "view",
      "type": "function"
    },
    {
      "inputs": [
        {
          "internalType": "address",
          "name": "",
          "type": "address"
        }
      ],
      "name": "rewards",
      "outputs": [
        {
          "internalType": "uint256",
          "name": "",
          "type": "uint256"
        }
      ],
      "stateMutability": "view",
      "type": "function"
    },
    {
      "inputs": [
        {
          "internalType": "uint256",
          "name": "_duration",
          "type": "uint256"
        }
      ],
      "name": "setRewardDuration",
      "outputs": [],
      "stateMutability": "nonpayable",
      "type": "function"
    },
    {
      "inputs": [
        {
          "internalType": "uint256",
          "name": "_amount",
          "type": "uint256"
        }
      ],
      "name": "stake",
      "outputs": [],
      "stateMutability": "nonpayable",
      "type": "function"
    },
    {
      "inputs": [],
      "name": "stakingToken",
      "outputs": [
        {
          "internalType": "contract IERC20",
          "name": "",
          "type": "address"
        }
      ],
      "stateMutability": "view",
      "type": "function"
    },
    {
      "inputs": [],
      "name": "totalSupply",
      "outputs": [
        {
          "internalType": "uint256",
          "name": "",
          "type": "uint256"
        }
      ],
      "stateMutability": "view",
      "type": "function"
    },
    {
      "inputs": [],
      "name": "updatedAt",
      "outputs": [
        {
          "internalType": "uint256",
          "name": "",
          "type": "uint256"
        }
      ],
      "stateMutability": "view",
      "type": "function"
    },
    {
      "inputs": [
        {
          "internalType": "address",
          "name": "",
          "type": "address"
        }
      ],
      "name": "userRewardPerTokenPaid",
      "outputs": [
        {
          "internalType": "uint256",
          "name": "",
          "type": "uint256"
        }
      ],
      "stateMutability": "view",
      "type": "function"
    },
    {
      "inputs": [
        {
          "internalType": "uint256",
          "name": "_amount",
          "type": "uint256"
        }
      ],
      "name": "withdraw",
      "outputs": [],
      "stateMutability": "nonpayable",
      "type": "function"
    }
  ],
  "bytecode": "0x60806040523480156200001157600080fd5b506040516200198f3803806200198f83398181016040528101906200003791906200016b565b33600260006101000a81548173ffffffffffffffffffffffffffffffffffffffff021916908373ffffffffffffffffffffffffffffffffffffffff160217905550816000806101000a81548173ffffffffffffffffffffffffffffffffffffffff021916908373ffffffffffffffffffffffffffffffffffffffff16021790555080600160006101000a81548173ffffffffffffffffffffffffffffffffffffffff021916908373ffffffffffffffffffffffffffffffffffffffff1602179055505050620001b2565b600080fd5b600073ffffffffffffffffffffffffffffffffffffffff82169050919050565b6000620001338262000106565b9050919050565b620001458162000126565b81146200015157600080fd5b50565b60008151905062000165816200013a565b92915050565b6000806040838503121562000185576200018462000101565b5b6000620001958582860162000154565b9250506020620001a88582860162000154565b9150509250929050565b6117cd80620001c26000396000f3fe608060405234801561001057600080fd5b50600436106101365760003560e01c80637ae2b5c7116100b8578063a694fc3a1161007c578063a694fc3a14610341578063c0ed00c91461035d578063cd3daf9d14610379578063df136d6514610397578063efed0895146103b5578063f7c618c1146103d157610136565b80637ae2b5c7146102875780637b0a47ee146102b757806380faa57d146102d55780638b876347146102f35780638da5cb5b1461032357610136565b8063372500ab116100ff578063372500ab146101f357806367d3b488146101fd57806370a082311461021b57806372f702f31461024b5780637519ab501461026957610136565b80628cc2621461013b5780630700037d1461016b5780630fb5a6b41461019b57806318160ddd146101b95780632e1a7d4d146101d7575b600080fd5b6101556004803603810190610150919061112c565b6103ef565b6040516101629190611172565b60405180910390f35b6101856004803603810190610180919061112c565b6104f1565b6040516101929190611172565b60405180910390f35b6101a3610509565b6040516101b09190611172565b60405180910390f35b6101c161050f565b6040516101ce9190611172565b60405180910390f35b6101f160048036038101906101ec91906111b9565b610515565b005b6101fb610799565b005b6102056109c4565b6040516102129190611172565b60405180910390f35b6102356004803603810190610230919061112c565b6109ca565b6040516102429190611172565b60405180910390f35b6102536109e2565b6040516102609190611245565b60405180910390f35b610271610a06565b60405161027e9190611172565b60405180910390f35b6102a1600480360381019061029c9190611260565b610a0c565b6040516102ae9190611172565b60405180910390f35b6102bf610a25565b6040516102cc9190611172565b60405180910390f35b6102dd610a2b565b6040516102ea9190611172565b60405180910390f35b61030d6004803603810190610308919061112c565b610a3e565b60405161031a9190611172565b60405180910390f35b61032b610a56565b60405161033891906112af565b60405180910390f35b61035b600480360381019061035691906111b9565b610a7c565b005b610377600480360381019061037291906111b9565b610d02565b005b610381610de0565b60405161038e9190611172565b60405180910390f35b61039f610e4b565b6040516103ac9190611172565b60405180910390f35b6103cf60048036038101906103ca91906111b9565b610e51565b005b6103d96110a3565b6040516103e69190611245565b60405180910390f35b6000600660008373ffffffffffffffffffffffffffffffffffffffff1673ffffffffffffffffffffffffffffffffffffffff16815260200190815260200160002054670de0b6b3a7640000600a60008573ffffffffffffffffffffffffffffffffffffffff1673ffffffffffffffffffffffffffffffffffffffff16815260200190815260200160002054610482610de0565b61048c91906112f9565b600b60008673ffffffffffffffffffffffffffffffffffffffff1673ffffffffffffffffffffffffffffffffffffffff168152602001908152602001600020546104d6919061132d565b6104e091906113b6565b6104ea91906113e7565b9050919050565b60066020528060005260406000206000915090505481565b60035481565b60085481565b3361051e610de0565b60098190555061052c610a2b565b600581905550600073ffffffffffffffffffffffffffffffffffffffff168173ffffffffffffffffffffffffffffffffffffffff16146105f95761056f816103ef565b600660008373ffffffffffffffffffffffffffffffffffffffff1673ffffffffffffffffffffffffffffffffffffffff16815260200190815260200160002081905550600954600a60008373ffffffffffffffffffffffffffffffffffffffff1673ffffffffffffffffffffffffffffffffffffffff168152602001908152602001600020819055505b6000821161063c576040517f08c379a00000000000000000000000000000000000000000000000000000000081526004016106339061149a565b60405180910390fd5b81600b60003373ffffffffffffffffffffffffffffffffffffffff1673ffffffffffffffffffffffffffffffffffffffff168152602001908152602001600020600082825461068b91906112f9565b9250508190555081600860008282546106a491906112f9565b9250508190555060008060009054906101000a900473ffffffffffffffffffffffffffffffffffffffff1673ffffffffffffffffffffffffffffffffffffffff1663a9059cbb33856040518363ffffffff1660e01b81526004016107099291906114ba565b602060405180830381600087803b15801561072357600080fd5b505af1158015610737573d6000803e3d6000fd5b505050506040513d601f19601f8201168201806040525081019061075b919061151b565b905080610794576040517f1e647db200000000000000000000000000000000000000000000000000000000815260040160405180910390fd5b505050565b336107a2610de0565b6009819055506107b0610a2b565b600581905550600073ffffffffffffffffffffffffffffffffffffffff168173ffffffffffffffffffffffffffffffffffffffff161461087d576107f3816103ef565b600660008373ffffffffffffffffffffffffffffffffffffffff1673ffffffffffffffffffffffffffffffffffffffff16815260200190815260200160002081905550600954600a60008373ffffffffffffffffffffffffffffffffffffffff1673ffffffffffffffffffffffffffffffffffffffff168152602001908152602001600020819055505b6000600660003373ffffffffffffffffffffffffffffffffffffffff1673ffffffffffffffffffffffffffffffffffffffff16815260200190815260200160002054905060008111156109c0576000600660003373ffffffffffffffffffffffffffffffffffffffff1673ffffffffffffffffffffffffffffffffffffffff16815260200190815260200160002081905550600160009054906101000a900473ffffffffffffffffffffffffffffffffffffffff1673ffffffffffffffffffffffffffffffffffffffff1663a9059cbb33836040518363ffffffff1660e01b815260040161096c9291906114ba565b602060405180830381600087803b15801561098657600080fd5b505af115801561099a573d6000803e3d6000fd5b505050506040513d601f19601f820116820180604052508101906109be919061151b565b505b5050565b60045481565b600b6020528060005260406000206000915090505481565b60008054906101000a900473ffffffffffffffffffffffffffffffffffffffff1681565b60055481565b6000818311610a1b5781610a1d565b825b905092915050565b60075481565b6000610a3942600454610a0c565b905090565b600a6020528060005260406000206000915090505481565b600260009054906101000a900473ffffffffffffffffffffffffffffffffffffffff1681565b33610a85610de0565b600981905550610a93610a2b565b600581905550600073ffffffffffffffffffffffffffffffffffffffff168173ffffffffffffffffffffffffffffffffffffffff1614610b6057610ad6816103ef565b600660008373ffffffffffffffffffffffffffffffffffffffff1673ffffffffffffffffffffffffffffffffffffffff16815260200190815260200160002081905550600954600a60008373ffffffffffffffffffffffffffffffffffffffff1673ffffffffffffffffffffffffffffffffffffffff168152602001908152602001600020819055505b60008211610ba3576040517f08c379a0000000000000000000000000000000000000000000000000000000008152600401610b9a9061149a565b60405180910390fd5b81600b60003373ffffffffffffffffffffffffffffffffffffffff1673ffffffffffffffffffffffffffffffffffffffff1681526020019081526020016000206000828254610bf291906113e7565b925050819055508160086000828254610c0b91906113e7565b9250508190555060008060009054906101000a900473ffffffffffffffffffffffffffffffffffffffff1673ffffffffffffffffffffffffffffffffffffffff166323b872dd3330866040518463ffffffff1660e01b8152600401610c7293929190611548565b602060405180830381600087803b158015610c8c57600080fd5b505af1158015610ca0573d6000803e3d6000fd5b505050506040513d601f19601f82011682018060405250810190610cc4919061151b565b905080610cfd576040517f1e647db200000000000000000000000000000000000000000000000000000000815260040160405180910390fd5b505050565b600260009054906101000a900473ffffffffffffffffffffffffffffffffffffffff1673ffffffffffffffffffffffffffffffffffffffff163373ffffffffffffffffffffffffffffffffffffffff1614610d92576040517f08c379a0000000000000000000000000000000000000000000000000000000008152600401610d89906115cb565b60405180910390fd5b4260045410610dd6576040517f08c379a0000000000000000000000000000000000000000000000000000000008152600401610dcd90611637565b60405180910390fd5b8060038190555050565b6000806008541415610df6576009549050610e48565b600854670de0b6b3a7640000600554610e0d610a2b565b610e1791906112f9565b600754610e24919061132d565b610e2e919061132d565b610e3891906113b6565b600954610e4591906113e7565b90505b90565b60095481565b600260009054906101000a900473ffffffffffffffffffffffffffffffffffffffff1673ffffffffffffffffffffffffffffffffffffffff163373ffffffffffffffffffffffffffffffffffffffff1614610ee1576040517f08c379a0000000000000000000000000000000000000000000000000000000008152600401610ed8906115cb565b60405180910390fd5b426004541115610f045760035481610ef991906113b6565b600781905550610f44565b600042600454610f1491906112f9565b600754610f21919061132d565b905060035482610f3191906113b6565b81610f3c91906113e7565b600781905550505b600060075411610f89576040517f08c379a0000000000000000000000000000000000000000000000000000000008152600401610f80906116a3565b60405180910390fd5b600160009054906101000a900473ffffffffffffffffffffffffffffffffffffffff1673ffffffffffffffffffffffffffffffffffffffff166370a08231306040518263ffffffff1660e01b8152600401610fe491906112af565b60206040518083038186803b158015610ffc57600080fd5b505afa158015611010573d6000803e3d6000fd5b505050506040513d601f19601f8201168201806040525081019061103491906116d8565b600354600754611044919061132d565b1115611085576040517f08c379a000000000000000000000000000000000000000000000000000000000815260040161107c90611777565b60405180910390fd5b6003544261109391906113e7565b6004819055504260058190555050565b600160009054906101000a900473ffffffffffffffffffffffffffffffffffffffff1681565b600080fd5b600073ffffffffffffffffffffffffffffffffffffffff82169050919050565b60006110f9826110ce565b9050919050565b611109816110ee565b811461111457600080fd5b50565b60008135905061112681611100565b92915050565b600060208284031215611142576111416110c9565b5b600061115084828501611117565b91505092915050565b6000819050919050565b61116c81611159565b82525050565b60006020820190506111876000830184611163565b92915050565b61119681611159565b81146111a157600080fd5b50565b6000813590506111b38161118d565b92915050565b6000602082840312156111cf576111ce6110c9565b5b60006111dd848285016111a4565b91505092915050565b6000819050919050565b600061120b611206611201846110ce565b6111e6565b6110ce565b9050919050565b600061121d826111f0565b9050919050565b600061122f82611212565b9050919050565b61123f81611224565b82525050565b600060208201905061125a6000830184611236565b92915050565b60008060408385031215611277576112766110c9565b5b6000611285858286016111a4565b9250506020611296858286016111a4565b9150509250929050565b6112a9816110ee565b82525050565b60006020820190506112c460008301846112a0565b92915050565b7f4e487b7100000000000000000000000000000000000000000000000000000000600052601160045260246000fd5b600061130482611159565b915061130f83611159565b925082821015611322576113216112ca565b5b828203905092915050565b600061133882611159565b915061134383611159565b9250817fffffffffffffffffffffffffffffffffffffffffffffffffffffffffffffffff048311821515161561137c5761137b6112ca565b5b828202905092915050565b7f4e487b7100000000000000000000000000000000000000000000000000000000600052601260045260246000fd5b60006113c182611159565b91506113cc83611159565b9250826113dc576113db611387565b5b828204905092915050565b60006113f282611159565b91506113fd83611159565b9250827fffffffffffffffffffffffffffffffffffffffffffffffffffffffffffffffff03821115611432576114316112ca565b5b828201905092915050565b600082825260208201905092915050565b7f616d6f756e74203d203000000000000000000000000000000000000000000000600082015250565b6000611484600a8361143d565b915061148f8261144e565b602082019050919050565b600060208201905081810360008301526114b381611477565b9050919050565b60006040820190506114cf60008301856112a0565b6114dc6020830184611163565b9392505050565b60008115159050919050565b6114f8816114e3565b811461150357600080fd5b50565b600081519050611515816114ef565b92915050565b600060208284031215611531576115306110c9565b5b600061153f84828501611506565b91505092915050565b600060608201905061155d60008301866112a0565b61156a60208301856112a0565b6115776040830184611163565b949350505050565b7f4e6f74206f776e65720000000000000000000000000000000000000000000000600082015250565b60006115b560098361143d565b91506115c08261157f565b602082019050919050565b600060208201905081810360008301526115e4816115a8565b9050919050565b7f4475726174696f6e206973206e6f74207965742066696e697368000000000000600082015250565b6000611621601a8361143d565b915061162c826115eb565b602082019050919050565b6000602082019050818103600083015261165081611614565b9050919050565b7f7265776172642072617465203d20300000000000000000000000000000000000600082015250565b600061168d600f8361143d565b915061169882611657565b602082019050919050565b600060208201905081810360008301526116bc81611680565b9050919050565b6000815190506116d28161118d565b92915050565b6000602082840312156116ee576116ed6110c9565b5b60006116fc848285016116c3565b91505092915050565b7f2052657761726452617465203e2062616c616e6365206f66207265776172647360008201527f546f6b656e000000000000000000000000000000000000000000000000000000602082015250565b600061176160258361143d565b915061176c82611705565b604082019050919050565b6000602082019050818103600083015261179081611754565b905091905056fea2646970667358221220c9a0e3b2714afe909224ed1184c13f3110a74a53239aa71d617e5e51f7ab090264736f6c63430008080033",
  "linkReferences": {},
  "deployedLinkReferences": {}
}